{
  "contractName": "ForensicContract",
  "abi": [
    {
      "constant": true,
      "inputs": [
        {
          "internalType": "uint256",
          "name": "",
          "type": "uint256"
        }
      ],
      "name": "crime",
      "outputs": [
        {
          "internalType": "uint256",
          "name": "crime_id",
          "type": "uint256"
        },
        {
          "internalType": "string",
          "name": "exhibit_name",
          "type": "string"
        },
        {
          "internalType": "string",
          "name": "desc",
          "type": "string"
        },
        {
          "internalType": "string",
          "name": "timestamp",
          "type": "string"
        },
        {
          "internalType": "string",
          "name": "ipfsHash",
          "type": "string"
        }
      ],
      "payable": false,
      "stateMutability": "view",
      "type": "function"
    },
    {
      "constant": false,
      "inputs": [
        {
          "internalType": "uint256",
          "name": "_crime_id",
          "type": "uint256"
        },
        {
          "internalType": "string",
          "name": "_exhibit_name",
          "type": "string"
        },
        {
          "internalType": "string",
          "name": "_desc",
          "type": "string"
        },
        {
          "internalType": "string",
          "name": "_timestamp",
          "type": "string"
        },
        {
          "internalType": "string",
          "name": "_ipfsHash",
          "type": "string"
        }
      ],
      "name": "addReport",
      "outputs": [
        {
          "internalType": "uint256",
          "name": "",
          "type": "uint256"
        }
      ],
      "payable": false,
      "stateMutability": "nonpayable",
      "type": "function"
    },
    {
      "constant": true,
      "inputs": [],
      "name": "getPatCount",
      "outputs": [
        {
          "internalType": "uint256",
          "name": "",
          "type": "uint256"
        }
      ],
      "payable": false,
      "stateMutability": "view",
      "type": "function"
    },
    {
      "constant": true,
      "inputs": [
        {
          "internalType": "uint256",
          "name": "index",
          "type": "uint256"
        }
      ],
      "name": "getPat",
      "outputs": [
        {
          "internalType": "uint256",
          "name": "",
          "type": "uint256"
        },
        {
          "internalType": "string",
          "name": "",
          "type": "string"
        },
        {
          "internalType": "string",
          "name": "",
          "type": "string"
        },
        {
          "internalType": "string",
          "name": "",
          "type": "string"
        },
        {
          "internalType": "string",
          "name": "",
          "type": "string"
        }
      ],
      "payable": false,
      "stateMutability": "view",
      "type": "function"
    }
  ],
  "bytecode": "0x608060405234801561001057600080fd5b50610fbb806100206000396000f3fe608060405234801561001057600080fd5b506004361061004c5760003560e01c80632511e3c014610051578063ce4003771461006f578063e4f606091461030d578063e9a51a77146104ff575b600080fd5b6100596106f1565b6040518082815260200191505060405180910390f35b6102f7600480360360a081101561008557600080fd5b8101908080359060200190929190803590602001906401000000008111156100ac57600080fd5b8201836020820111156100be57600080fd5b803590602001918460018302840111640100000000831117156100e057600080fd5b91908080601f016020809104026020016040519081016040528093929190818152602001838380828437600081840152601f19601f8201169050808301925050505050505091929192908035906020019064010000000081111561014357600080fd5b82018360208201111561015557600080fd5b8035906020019184600183028401116401000000008311171561017757600080fd5b91908080601f016020809104026020016040519081016040528093929190818152602001838380828437600081840152601f19601f820116905080830192505050505050509192919290803590602001906401000000008111156101da57600080fd5b8201836020820111156101ec57600080fd5b8035906020019184600183028401116401000000008311171561020e57600080fd5b91908080601f016020809104026020016040519081016040528093929190818152602001838380828437600081840152601f19601f8201169050808301925050505050505091929192908035906020019064010000000081111561027157600080fd5b82018360208201111561028357600080fd5b803590602001918460018302840111640100000000831117156102a557600080fd5b91908080601f016020809104026020016040519081016040528093929190818152602001838380828437600081840152601f19601f8201169050808301925050505050505091929192905050506106fd565b6040518082815260200191505060405180910390f35b6103396004803603602081101561032357600080fd5b810190808035906020019092919050505061083b565b6040518086815260200180602001806020018060200180602001858103855289818151815260200191508051906020019080838360005b8381101561038b578082015181840152602081019050610370565b50505050905090810190601f1680156103b85780820380516001836020036101000a031916815260200191505b50858103845288818151815260200191508051906020019080838360005b838110156103f15780820151818401526020810190506103d6565b50505050905090810190601f16801561041e5780820380516001836020036101000a031916815260200191505b50858103835287818151815260200191508051906020019080838360005b8381101561045757808201518184015260208101905061043c565b50505050905090810190601f1680156104845780820380516001836020036101000a031916815260200191505b50858103825286818151815260200191508051906020019080838360005b838110156104bd5780820151818401526020810190506104a2565b50505050905090810190601f1680156104ea5780820380516001836020036101000a031916815260200191505b50995050505050505050505060405180910390f35b61052b6004803603602081101561051557600080fd5b8101908080359060200190929190505050610b5d565b6040518086815260200180602001806020018060200180602001858103855289818151815260200191508051906020019080838360005b8381101561057d578082015181840152602081019050610562565b50505050905090810190601f1680156105aa5780820380516001836020036101000a031916815260200191505b50858103845288818151815260200191508051906020019080838360005b838110156105e35780820151818401526020810190506105c8565b50505050905090810190601f1680156106105780820380516001836020036101000a031916815260200191505b50858103835287818151815260200191508051906020019080838360005b8381101561064957808201518184015260208101905061062e565b50505050905090810190601f1680156106765780820380516001836020036101000a031916815260200191505b50858103825286818151815260200191508051906020019080838360005b838110156106af578082015181840152602081019050610694565b50505050905090810190601f1680156106dc5780820380516001836020036101000a031916815260200191505b50995050505050505050505060405180910390f35b60008080549050905090565b60008080548091906001016107129190610e00565b508560006001600080549050038154811061072957fe5b9060005260206000209060050201600001819055508460006001600080549050038154811061075457fe5b90600052602060002090600502016001019080519060200190610778929190610e32565b508360006001600080549050038154811061078f57fe5b906000526020600020906005020160020190805190602001906107b3929190610e32565b50826000600160008054905003815481106107ca57fe5b906000526020600020906005020160030190805190602001906107ee929190610e32565b508160006001600080549050038154811061080557fe5b90600052602060002090600502016004019080519060200190610829929190610e32565b50600080549050905095945050505050565b60006060806060806000868154811061085057fe5b9060005260206000209060050201600001546000878154811061086f57fe5b90600052602060002090600502016001016000888154811061088d57fe5b9060005260206000209060050201600201600089815481106108ab57fe5b906000526020600020906005020160030160008a815481106108c957fe5b9060005260206000209060050201600401838054600181600116156101000203166002900480601f01602080910402602001604051908101604052809291908181526020018280546001816001161561010002031660029004801561096f5780601f106109445761010080835404028352916020019161096f565b820191906000526020600020905b81548152906001019060200180831161095257829003601f168201915b50505050509350828054600181600116156101000203166002900480601f016020809104026020016040519081016040528092919081815260200182805460018160011615610100020316600290048015610a0b5780601f106109e057610100808354040283529160200191610a0b565b820191906000526020600020905b8154815290600101906020018083116109ee57829003601f168201915b50505050509250818054600181600116156101000203166002900480601f016020809104026020016040519081016040528092919081815260200182805460018160011615610100020316600290048015610aa75780601f10610a7c57610100808354040283529160200191610aa7565b820191906000526020600020905b815481529060010190602001808311610a8a57829003601f168201915b50505050509150808054600181600116156101000203166002900480601f016020809104026020016040519081016040528092919081815260200182805460018160011615610100020316600290048015610b435780601f10610b1857610100808354040283529160200191610b43565b820191906000526020600020905b815481529060010190602001808311610b2657829003601f168201915b505050505090509450945094509450945091939590929450565b60008181548110610b6a57fe5b9060005260206000209060050201600091509050806000015490806001018054600181600116156101000203166002900480601f016020809104026020016040519081016040528092919081815260200182805460018160011615610100020316600290048015610c1c5780601f10610bf157610100808354040283529160200191610c1c565b820191906000526020600020905b815481529060010190602001808311610bff57829003601f168201915b505050505090806002018054600181600116156101000203166002900480601f016020809104026020016040519081016040528092919081815260200182805460018160011615610100020316600290048015610cba5780601f10610c8f57610100808354040283529160200191610cba565b820191906000526020600020905b815481529060010190602001808311610c9d57829003601f168201915b505050505090806003018054600181600116156101000203166002900480601f016020809104026020016040519081016040528092919081815260200182805460018160011615610100020316600290048015610d585780601f10610d2d57610100808354040283529160200191610d58565b820191906000526020600020905b815481529060010190602001808311610d3b57829003601f168201915b505050505090806004018054600181600116156101000203166002900480601f016020809104026020016040519081016040528092919081815260200182805460018160011615610100020316600290048015610df65780601f10610dcb57610100808354040283529160200191610df6565b820191906000526020600020905b815481529060010190602001808311610dd957829003601f168201915b5050505050905085565b815481835581811115610e2d57600502816005028360005260206000209182019101610e2c9190610eb2565b5b505050565b828054600181600116156101000203166002900490600052602060002090601f016020900481019282601f10610e7357805160ff1916838001178555610ea1565b82800160010185558215610ea1579182015b82811115610ea0578251825591602001919060010190610e85565b5b509050610eae9190610f19565b5090565b610f1691905b80821115610f1257600080820160009055600182016000610ed99190610f3e565b600282016000610ee99190610f3e565b600382016000610ef99190610f3e565b600482016000610f099190610f3e565b50600501610eb8565b5090565b90565b610f3b91905b80821115610f37576000816000905550600101610f1f565b5090565b90565b50805460018160011615610100020316600290046000825580601f10610f645750610f83565b601f016020900490600052602060002090810190610f829190610f19565b5b5056fea265627a7a72315820a5186c9d21bea998b2d117dba86ae75764fde01e44e7ca35d4a80ab87479393264736f6c63430005100032",
  "source": "pragma solidity ^0.5.0;\n\ncontract ForensicContract {  \n  struct CrimeDetails {\n        uint crime_id;\n        string exhibit_name;\n        string desc;\n        string timestamp;\n        string ipfsHash;\n    }\n    \n    CrimeDetails[] public crime;    \n\n    function addReport(uint _crime_id, string memory _exhibit_name, string memory _desc, string memory _timestamp, string memory _ipfsHash) public returns(uint) {\n        crime.length++;\n        crime[crime.length-1].crime_id = _crime_id;\n        crime[crime.length-1].exhibit_name = _exhibit_name;\n        crime[crime.length-1].desc = _desc;\n        crime[crime.length-1].timestamp = _timestamp;\n        crime[crime.length-1].ipfsHash = _ipfsHash;\n        return crime.length;        \n    }\n    \n    function getPatCount() public view returns(uint) {\n        return crime.length;\n    }\n    \n    function getPat(uint index) public view returns (uint, string memory, string memory,string memory, string memory)\n    {\n        return (crime[index].crime_id, crime[index].exhibit_name, crime[index].desc, crime[index].timestamp, crime[index].ipfsHash);\n    }\n    \n    // function getPat2(uint index) public view returns(string memory, uint, string memory, string memory)\n    // {\n    //     return (crime[index].par_rem, crime[index].fee, crime[index].message, crime[index].ipfsHash);\n    // }\n}\n",
  "sourcePath": "/home/puttaraj/Downloads/Crime-Records-Blockchain/contracts/ForensicContract.sol",
  "compiler": {
    "name": "solc",
    "version": "0.5.16+commit.9c3226ce.Emscripten.clang"
  },
  "schemaVersion": "3.4.16",
  "updatedAt": "2024-06-13T07:52:25.278Z",
  "networkType": "ethereum",
  "devdoc": {
    "methods": {}
  },
  "userdoc": {
    "methods": {}
  }
}